{
  "contractName": "DecentraAid",
  "abi": [
    {
      "inputs": [],
      "stateMutability": "nonpayable",
      "type": "constructor"
    },
    {
      "inputs": [
        {
          "internalType": "uint256",
          "name": "",
          "type": "uint256"
        }
      ],
      "name": "events",
      "outputs": [
        {
          "internalType": "string",
          "name": "eventName",
          "type": "string"
        },
        {
          "internalType": "string",
          "name": "organization",
          "type": "string"
        },
        {
          "internalType": "string",
          "name": "location",
          "type": "string"
        },
        {
          "internalType": "string",
          "name": "date",
          "type": "string"
        },
        {
          "internalType": "string",
          "name": "startTime",
          "type": "string"
        },
        {
          "internalType": "string",
          "name": "endTime",
          "type": "string"
        },
        {
          "internalType": "uint256",
          "name": "totalEventHours",
          "type": "uint256"
        },
        {
          "internalType": "uint256",
          "name": "numberOfVolunteersRequired",
          "type": "uint256"
        },
        {
          "internalType": "uint256",
          "name": "numberOfLeadersRequired",
          "type": "uint256"
        },
        {
          "internalType": "string",
          "name": "eventDescription",
          "type": "string"
        },
        {
          "internalType": "uint256",
          "name": "id",
          "type": "uint256"
        },
        {
          "internalType": "address",
          "name": "leaderAddress",
          "type": "address"
        }
      ],
      "stateMutability": "view",
      "type": "function",
      "constant": true
    },
    {
      "inputs": [],
      "name": "getHours",
      "outputs": [
        {
          "internalType": "uint256",
          "name": "",
          "type": "uint256"
        }
      ],
      "stateMutability": "view",
      "type": "function",
      "constant": true
    },
    {
      "inputs": [],
      "name": "getAttendanceRate",
      "outputs": [
        {
          "internalType": "uint256",
          "name": "",
          "type": "uint256"
        }
      ],
      "stateMutability": "view",
      "type": "function",
      "constant": true
    },
    {
      "inputs": [
        {
          "internalType": "string",
          "name": "userName",
          "type": "string"
        },
        {
          "internalType": "uint256",
          "name": "id",
          "type": "uint256"
        }
      ],
      "name": "signUp",
      "outputs": [],
      "stateMutability": "nonpayable",
      "type": "function"
    },
    {
      "inputs": [
        {
          "internalType": "string",
          "name": "userName",
          "type": "string"
        },
        {
          "internalType": "uint256",
          "name": "id",
          "type": "uint256"
        }
      ],
      "name": "signUpAsLeader",
      "outputs": [],
      "stateMutability": "nonpayable",
      "type": "function"
    },
    {
      "inputs": [
        {
          "internalType": "uint256",
          "name": "eventId",
          "type": "uint256"
        }
      ],
      "name": "getNumberOfVolunteers",
      "outputs": [
        {
          "internalType": "uint256",
          "name": "",
          "type": "uint256"
        }
      ],
      "stateMutability": "view",
      "type": "function",
      "constant": true
    },
    {
      "inputs": [
        {
          "internalType": "uint256",
          "name": "eventId",
          "type": "uint256"
        }
      ],
      "name": "getNumberOfLeaders",
      "outputs": [
        {
          "internalType": "uint256",
          "name": "",
          "type": "uint256"
        }
      ],
      "stateMutability": "view",
      "type": "function",
      "constant": true
    },
    {
      "inputs": [
        {
          "internalType": "uint256",
          "name": "eventId",
          "type": "uint256"
        }
      ],
      "name": "getNamesOfVolunteers",
      "outputs": [
        {
          "internalType": "string[]",
          "name": "",
          "type": "string[]"
        }
      ],
      "stateMutability": "view",
      "type": "function",
      "constant": true
    },
    {
      "inputs": [
        {
          "internalType": "uint256",
          "name": "eventId",
          "type": "uint256"
        }
      ],
      "name": "getNamesOfLeader",
      "outputs": [
        {
          "internalType": "string[]",
          "name": "",
          "type": "string[]"
        }
      ],
      "stateMutability": "view",
      "type": "function",
      "constant": true
    },
    {
      "inputs": [
        {
          "internalType": "string",
          "name": "name",
          "type": "string"
        },
        {
          "internalType": "uint256",
          "name": "id",
          "type": "uint256"
        }
      ],
      "name": "show",
      "outputs": [],
      "stateMutability": "nonpayable",
      "type": "function"
    },
    {
      "inputs": [
        {
          "internalType": "uint256",
          "name": "id",
          "type": "uint256"
        }
      ],
      "name": "startEvent",
      "outputs": [],
      "stateMutability": "nonpayable",
      "type": "function"
    },
    {
      "inputs": [
        {
          "internalType": "uint256",
          "name": "id",
          "type": "uint256"
        }
      ],
      "name": "endEvent",
      "outputs": [],
      "stateMutability": "nonpayable",
      "type": "function"
    },
    {
      "inputs": [
        {
          "internalType": "string",
          "name": "eventName",
          "type": "string"
        },
        {
          "internalType": "string",
          "name": "orgName",
          "type": "string"
        },
        {
          "internalType": "string",
          "name": "location",
          "type": "string"
        },
        {
          "internalType": "string",
          "name": "date",
          "type": "string"
        },
        {
          "internalType": "string",
          "name": "startTime",
          "type": "string"
        },
        {
          "internalType": "string",
          "name": "endTime",
          "type": "string"
        },
        {
          "internalType": "uint256",
          "name": "totalEventHours",
          "type": "uint256"
        },
        {
          "internalType": "uint256",
          "name": "numberOfVolunters",
          "type": "uint256"
        },
        {
          "internalType": "uint256",
          "name": "numberOfLeaders",
          "type": "uint256"
        },
        {
          "internalType": "string",
          "name": "eventDescription",
          "type": "string"
        },
        {
          "internalType": "uint256",
          "name": "id",
          "type": "uint256"
        }
      ],
      "name": "createEvent",
      "outputs": [],
      "stateMutability": "nonpayable",
      "type": "function"
    },
    {
      "inputs": [
        {
          "internalType": "uint256",
          "name": "id",
          "type": "uint256"
        }
      ],
      "name": "getEventName",
      "outputs": [
        {
          "internalType": "string",
          "name": "",
          "type": "string"
        }
      ],
      "stateMutability": "view",
      "type": "function",
      "constant": true
    },
    {
      "inputs": [
        {
          "internalType": "uint256",
          "name": "id",
          "type": "uint256"
        }
      ],
      "name": "getOrganizationName",
      "outputs": [
        {
          "internalType": "string",
          "name": "",
          "type": "string"
        }
      ],
      "stateMutability": "view",
      "type": "function",
      "constant": true
    },
    {
      "inputs": [
        {
          "internalType": "uint256",
          "name": "id",
          "type": "uint256"
        }
      ],
      "name": "getLocation",
      "outputs": [
        {
          "internalType": "string",
          "name": "",
          "type": "string"
        }
      ],
      "stateMutability": "view",
      "type": "function",
      "constant": true
    },
    {
      "inputs": [
        {
          "internalType": "uint256",
          "name": "id",
          "type": "uint256"
        }
      ],
      "name": "getEventDate",
      "outputs": [
        {
          "internalType": "string",
          "name": "",
          "type": "string"
        }
      ],
      "stateMutability": "view",
      "type": "function",
      "constant": true
    },
    {
      "inputs": [
        {
          "internalType": "uint256",
          "name": "id",
          "type": "uint256"
        }
      ],
      "name": "getEventStartTime",
      "outputs": [
        {
          "internalType": "string",
          "name": "",
          "type": "string"
        }
      ],
      "stateMutability": "view",
      "type": "function",
      "constant": true
    },
    {
      "inputs": [
        {
          "internalType": "uint256",
          "name": "id",
          "type": "uint256"
        }
      ],
      "name": "getEventEndTime",
      "outputs": [
        {
          "internalType": "string",
          "name": "",
          "type": "string"
        }
      ],
      "stateMutability": "view",
      "type": "function",
      "constant": true
    },
    {
      "inputs": [
        {
          "internalType": "uint256",
          "name": "id",
          "type": "uint256"
        }
      ],
      "name": "getNumberOfVolunteersRequired",
      "outputs": [
        {
          "internalType": "uint256",
          "name": "",
          "type": "uint256"
        }
      ],
      "stateMutability": "view",
      "type": "function",
      "constant": true
    },
    {
      "inputs": [
        {
          "internalType": "uint256",
          "name": "id",
          "type": "uint256"
        }
      ],
      "name": "getNumberOfLeadersRequired",
      "outputs": [
        {
          "internalType": "uint256",
          "name": "",
          "type": "uint256"
        }
      ],
      "stateMutability": "view",
      "type": "function",
      "constant": true
    },
    {
      "inputs": [
        {
          "internalType": "uint256",
          "name": "id",
          "type": "uint256"
        }
      ],
      "name": "getEventDescription",
      "outputs": [
        {
          "internalType": "string",
          "name": "",
          "type": "string"
        }
      ],
      "stateMutability": "view",
      "type": "function",
      "constant": true
    },
    {
      "inputs": [],
      "name": "getNumberOfEvents",
      "outputs": [
        {
          "internalType": "uint256",
          "name": "",
          "type": "uint256"
        }
      ],
      "stateMutability": "view",
      "type": "function",
      "constant": true
    },
    {
      "inputs": [
        {
          "internalType": "uint256",
          "name": "id",
          "type": "uint256"
        }
      ],
      "name": "getEventId",
      "outputs": [
        {
          "internalType": "uint256",
          "name": "",
          "type": "uint256"
        }
      ],
      "stateMutability": "view",
      "type": "function",
      "constant": true
    }
  ],
  "bytecode": "0x608060405234801561001057600080fd5b5033600460006101000a81548173ffffffffffffffffffffffffffffffffffffffff021916908373ffffffffffffffffffffffffffffffffffffffff160217905550612a7e806100616000396000f3fe608060405234801561001057600080fd5b50600436106101585760003560e01c80637a6b7af1116100c3578063c3be559b1161007c578063c3be559b1461042c578063d0887ff31461045c578063d4269b9b1461048c578063d5c5b83c146104bc578063ea3a846b146104ec578063f6c507551461051c57610158565b80637a6b7af1146103485780637f7b139314610378578063903778ea146103a85780639c42ce92146103c4578063a59a6953146103e0578063b683549a146103fc57610158565b8063330a347b11610115578063330a347b146102505780634945fcc71461026c578063545f10431461029c5780635b4c4b20146102cc57806369075afe146102fc5780637462c1ad1461031857610158565b806309ac3bb51461015d5780630b7914301461017b5780630e0a6f0c146101b65780631c304840146101d4578063291a821d146101f05780632a4ecbd314610220575b600080fd5b61016561053a565b604051610172919061267d565b60405180910390f35b61019560048036038101906101909190612162565b610544565b6040516101ad9c9b9a99989796959493929190612512565b60405180910390f35b6101be61097c565b6040516101cb919061267d565b60405180910390f35b6101ee60048036038101906101e9919061210e565b6109c3565b005b61020a60048036038101906102059190612162565b610b76565b60405161021791906124f0565b60405180910390f35b61023a60048036038101906102359190612162565b610c1e565b60405161024791906124f0565b60405180910390f35b61026a60048036038101906102659190612162565b610cc6565b005b61028660048036038101906102819190612162565b610db6565b60405161029391906124f0565b60405180910390f35b6102b660048036038101906102b19190612162565b610e5e565b6040516102c391906124f0565b60405180910390f35b6102e660048036038101906102e19190612162565b610f06565b6040516102f391906124f0565b60405180910390f35b6103166004803603810190610311919061210e565b610fae565b005b610332600480360381019061032d9190612162565b6112a1565b60405161033f919061267d565b60405180910390f35b610362600480360381019061035d9190612162565b6112c0565b60405161036f919061267d565b60405180910390f35b610392600480360381019061038d9190612162565b6112e0565b60405161039f91906124f0565b60405180910390f35b6103c260048036038101906103bd919061210e565b611388565b005b6103de60048036038101906103d99190611f76565b6116d0565b005b6103fa60048036038101906103f59190612162565b6119bf565b005b61041660048036038101906104119190612162565b611aaf565b604051610423919061267d565b60405180910390f35b61044660048036038101906104419190612162565b611ace565b604051610453919061267d565b60405180910390f35b61047660048036038101906104719190612162565b611aee565b60405161048391906124ce565b60405180910390f35b6104a660048036038101906104a19190612162565b611bdd565b6040516104b391906124ce565b60405180910390f35b6104d660048036038101906104d19190612162565b611ccc565b6040516104e391906124f0565b60405180910390f35b61050660048036038101906105019190612162565b611d74565b604051610513919061267d565b60405180910390f35b610524611d94565b604051610531919061267d565b60405180910390f35b6000600354905090565b6002602052806000526040600020600091509050806000018054610567906128e9565b80601f0160208091040260200160405190810160405280929190818152602001828054610593906128e9565b80156105e05780601f106105b5576101008083540402835291602001916105e0565b820191906000526020600020905b8154815290600101906020018083116105c357829003601f168201915b5050505050908060010180546105f5906128e9565b80601f0160208091040260200160405190810160405280929190818152602001828054610621906128e9565b801561066e5780601f106106435761010080835404028352916020019161066e565b820191906000526020600020905b81548152906001019060200180831161065157829003601f168201915b505050505090806002018054610683906128e9565b80601f01602080910402602001604051908101604052809291908181526020018280546106af906128e9565b80156106fc5780601f106106d1576101008083540402835291602001916106fc565b820191906000526020600020905b8154815290600101906020018083116106df57829003601f168201915b505050505090806003018054610711906128e9565b80601f016020809104026020016040519081016040528092919081815260200182805461073d906128e9565b801561078a5780601f1061075f5761010080835404028352916020019161078a565b820191906000526020600020905b81548152906001019060200180831161076d57829003601f168201915b50505050509080600401805461079f906128e9565b80601f01602080910402602001604051908101604052809291908181526020018280546107cb906128e9565b80156108185780601f106107ed57610100808354040283529160200191610818565b820191906000526020600020905b8154815290600101906020018083116107fb57829003601f168201915b50505050509080600501805461082d906128e9565b80601f0160208091040260200160405190810160405280929190818152602001828054610859906128e9565b80156108a65780601f1061087b576101008083540402835291602001916108a6565b820191906000526020600020905b81548152906001019060200180831161088957829003601f168201915b5050505050908060060154908060070154908060080154908060090180546108cd906128e9565b80601f01602080910402602001604051908101604052809291908181526020018280546108f9906128e9565b80156109465780601f1061091b57610100808354040283529160200191610946565b820191906000526020600020905b81548152906001019060200180831161092957829003601f168201915b50505050509080600a01549080600b0160009054906101000a900473ffffffffffffffffffffffffffffffffffffffff1690508c565b6000600560003373ffffffffffffffffffffffffffffffffffffffff1673ffffffffffffffffffffffffffffffffffffffff16815260200190815260200160002054905090565b3373ffffffffffffffffffffffffffffffffffffffff1660026000838152602001908152602001600020600b0160009054906101000a900473ffffffffffffffffffffffffffffffffffffffff1673ffffffffffffffffffffffffffffffffffffffff1614610a67576040517f08c379a0000000000000000000000000000000000000000000000000000000008152600401610a5e9061263d565b60405180910390fd5b6000600260008381526020019081526020016000206006015490506000600a84604051610a9491906124b7565b908152602001604051809103902060009054906101000a900473ffffffffffffffffffffffffffffffffffffffff16905081600560008373ffffffffffffffffffffffffffffffffffffffff1673ffffffffffffffffffffffffffffffffffffffff1681526020019081526020016000206000828254610b14919061278a565b92505081905550600c60008273ffffffffffffffffffffffffffffffffffffffff1673ffffffffffffffffffffffffffffffffffffffff1681526020019081526020016000206000815480929190610b6b9061291b565b919050555050505050565b6060600260008381526020019081526020016000206004018054610b99906128e9565b80601f0160208091040260200160405190810160405280929190818152602001828054610bc5906128e9565b8015610c125780601f10610be757610100808354040283529160200191610c12565b820191906000526020600020905b815481529060010190602001808311610bf557829003601f168201915b50505050509050919050565b6060600260008381526020019081526020016000206003018054610c41906128e9565b80601f0160208091040260200160405190810160405280929190818152602001828054610c6d906128e9565b8015610cba5780601f10610c8f57610100808354040283529160200191610cba565b820191906000526020600020905b815481529060010190602001808311610c9d57829003601f168201915b50505050509050919050565b600460009054906101000a900473ffffffffffffffffffffffffffffffffffffffff1673ffffffffffffffffffffffffffffffffffffffff163373ffffffffffffffffffffffffffffffffffffffff1614610d56576040517f08c379a0000000000000000000000000000000000000000000000000000000008152600401610d4d9061261d565b60405180910390fd5b6040518060400160405280600581526020017f456e646564000000000000000000000000000000000000000000000000000000815250600d60008381526020019081526020016000209080519060200190610db2929190611e56565b5050565b6060600260008381526020019081526020016000206000018054610dd9906128e9565b80601f0160208091040260200160405190810160405280929190818152602001828054610e05906128e9565b8015610e525780601f10610e2757610100808354040283529160200191610e52565b820191906000526020600020905b815481529060010190602001808311610e3557829003601f168201915b50505050509050919050565b6060600260008381526020019081526020016000206009018054610e81906128e9565b80601f0160208091040260200160405190810160405280929190818152602001828054610ead906128e9565b8015610efa5780601f10610ecf57610100808354040283529160200191610efa565b820191906000526020600020905b815481529060010190602001808311610edd57829003601f168201915b50505050509050919050565b6060600260008381526020019081526020016000206001018054610f29906128e9565b80601f0160208091040260200160405190810160405280929190818152602001828054610f55906128e9565b8015610fa25780601f10610f7757610100808354040283529160200191610fa2565b820191906000526020600020905b815481529060010190602001808311610f8557829003601f168201915b50505050509050919050565b6040518060400160405280600781526020017f537461727465640000000000000000000000000000000000000000000000000081525080519060200120600d600083815260200190815260200160002060405161100b91906124a0565b604051809103902014611053576040517f08c379a000000000000000000000000000000000000000000000000000000000815260040161104a906125fd565b60405180910390fd5b6040518060400160405280600581526020017f456e64656400000000000000000000000000000000000000000000000000000081525080519060200120600d60008381526020019081526020016000206040516110b091906124a0565b604051809103902014156110f9576040517f08c379a00000000000000000000000000000000000000000000000000000000081526004016110f0906125fd565b60405180910390fd5b6001600260008381526020019081526020016000206007015461111c919061278a565b600960008381526020019081526020016000205410611170576040517f08c379a00000000000000000000000000000000000000000000000000000000081526004016111679061265d565b60405180910390fd5b600b60003373ffffffffffffffffffffffffffffffffffffffff1673ffffffffffffffffffffffffffffffffffffffff16815260200190815260200160002060008154809291906111c09061291b565b919050555033600a836040516111d691906124b7565b908152602001604051809103902060006101000a81548173ffffffffffffffffffffffffffffffffffffffff021916908373ffffffffffffffffffffffffffffffffffffffff1602179055506001600082815260200190815260200160002060000182908060018154018082558091505060019003906000526020600020016000909190919091509080519060200190611271929190611e56565b5060008082815260200190815260200160002060000160008154809291906112989061291b565b91905055505050565b6000806000838152602001908152602001600020600101549050919050565b600060026000838152602001908152602001600020600701549050919050565b6060600260008381526020019081526020016000206002018054611303906128e9565b80601f016020809104026020016040519081016040528092919081815260200182805461132f906128e9565b801561137c5780601f106113515761010080835404028352916020019161137c565b820191906000526020600020905b81548152906001019060200180831161135f57829003601f168201915b50505050509050919050565b6040518060400160405280600781526020017f537461727465640000000000000000000000000000000000000000000000000081525080519060200120600d60008381526020019081526020016000206040516113e591906124a0565b60405180910390201461142d576040517f08c379a0000000000000000000000000000000000000000000000000000000008152600401611424906125fd565b60405180910390fd5b6040518060400160405280600581526020017f456e64656400000000000000000000000000000000000000000000000000000081525080519060200120600d600083815260200190815260200160002060405161148a91906124a0565b604051809103902014156114d3576040517f08c379a00000000000000000000000000000000000000000000000000000000081526004016114ca906125fd565b60405180910390fd5b600160026000838152602001908152602001600020600801546114f6919061278a565b60096000838152602001908152602001600020541061154a576040517f08c379a00000000000000000000000000000000000000000000000000000000081526004016115419061265d565b60405180910390fd5b600b60003373ffffffffffffffffffffffffffffffffffffffff1673ffffffffffffffffffffffffffffffffffffffff168152602001908152602001600020600081548092919061159a9061291b565b919050555033600a836040516115b091906124b7565b908152602001604051809103902060006101000a81548173ffffffffffffffffffffffffffffffffffffffff021916908373ffffffffffffffffffffffffffffffffffffffff1602179055503360026000838152602001908152602001600020600b0160006101000a81548173ffffffffffffffffffffffffffffffffffffffff021916908373ffffffffffffffffffffffffffffffffffffffff16021790555060016000828152602001908152602001600020600101829080600181540180825580915050600190039060005260206000200160009091909190915090805190602001906116a0929190611e56565b5060008082815260200190815260200160002060010160008154809291906116c79061291b565b91905055505050565b600460009054906101000a900473ffffffffffffffffffffffffffffffffffffffff1673ffffffffffffffffffffffffffffffffffffffff163373ffffffffffffffffffffffffffffffffffffffff1614611760576040517f08c379a00000000000000000000000000000000000000000000000000000000081526004016117579061261d565b60405180910390fd5b60003390506040518061018001604052808d81526020018c81526020018b81526020018a81526020018981526020018881526020018781526020018681526020018581526020018481526020018381526020018273ffffffffffffffffffffffffffffffffffffffff168152506002600084815260200190815260200160002060008201518160000190805190602001906117fc929190611e56565b506020820151816001019080519060200190611819929190611e56565b506040820151816002019080519060200190611836929190611e56565b506060820151816003019080519060200190611853929190611e56565b506080820151816004019080519060200190611870929190611e56565b5060a082015181600501908051906020019061188d929190611e56565b5060c0820151816006015560e0820151816007015561010082015181600801556101208201518160090190805190602001906118ca929190611e56565b5061014082015181600a015561016082015181600b0160006101000a81548173ffffffffffffffffffffffffffffffffffffffff021916908373ffffffffffffffffffffffffffffffffffffffff1602179055509050508160026000848152602001908152602001600020600a01819055506003600081548092919061194f9061291b565b91905055506040518060400160405280600b81526020017f4e6f742053746172746564000000000000000000000000000000000000000000815250600d600084815260200190815260200160002090805190602001906119b0929190611e56565b50505050505050505050505050565b600460009054906101000a900473ffffffffffffffffffffffffffffffffffffffff1673ffffffffffffffffffffffffffffffffffffffff163373ffffffffffffffffffffffffffffffffffffffff1614611a4f576040517f08c379a0000000000000000000000000000000000000000000000000000000008152600401611a469061261d565b60405180910390fd5b6040518060400160405280600781526020017f5374617274656400000000000000000000000000000000000000000000000000815250600d60008381526020019081526020016000209080519060200190611aab929190611e56565b5050565b6000806000838152602001908152602001600020600001549050919050565b600060026000838152602001908152602001600020600a01549050919050565b606060016000838152602001908152602001600020600101805480602002602001604051908101604052809291908181526020016000905b82821015611bd2578382906000526020600020018054611b45906128e9565b80601f0160208091040260200160405190810160405280929190818152602001828054611b71906128e9565b8015611bbe5780601f10611b9357610100808354040283529160200191611bbe565b820191906000526020600020905b815481529060010190602001808311611ba157829003601f168201915b505050505081526020019060010190611b26565b505050509050919050565b606060016000838152602001908152602001600020600001805480602002602001604051908101604052809291908181526020016000905b82821015611cc1578382906000526020600020018054611c34906128e9565b80601f0160208091040260200160405190810160405280929190818152602001828054611c60906128e9565b8015611cad5780601f10611c8257610100808354040283529160200191611cad565b820191906000526020600020905b815481529060010190602001808311611c9057829003601f168201915b505050505081526020019060010190611c15565b505050509050919050565b6060600260008381526020019081526020016000206005018054611cef906128e9565b80601f0160208091040260200160405190810160405280929190818152602001828054611d1b906128e9565b8015611d685780601f10611d3d57610100808354040283529160200191611d68565b820191906000526020600020905b815481529060010190602001808311611d4b57829003601f168201915b50505050509050919050565b600060026000838152602001908152602001600020600801549050919050565b600080600b60003373ffffffffffffffffffffffffffffffffffffffff1673ffffffffffffffffffffffffffffffffffffffff1681526020019081526020016000205490506000811415611dec576000915050611e53565b6000600c60003373ffffffffffffffffffffffffffffffffffffffff1673ffffffffffffffffffffffffffffffffffffffff168152602001908152602001600020549050600082606483611e409190612811565b611e4a91906127e0565b90508093505050505b90565b828054611e62906128e9565b90600052602060002090601f016020900481019282611e845760008555611ecb565b82601f10611e9d57805160ff1916838001178555611ecb565b82800160010185558215611ecb579182015b82811115611eca578251825591602001919060010190611eaf565b5b509050611ed89190611edc565b5090565b5b80821115611ef5576000816000905550600101611edd565b5090565b6000611f0c611f07846126c9565b612698565b905082815260208101848484011115611f2457600080fd5b611f2f8482856128a7565b509392505050565b600082601f830112611f4857600080fd5b8135611f58848260208601611ef9565b91505092915050565b600081359050611f7081612a31565b92915050565b60008060008060008060008060008060006101608c8e031215611f9857600080fd5b60008c013567ffffffffffffffff811115611fb257600080fd5b611fbe8e828f01611f37565b9b505060208c013567ffffffffffffffff811115611fdb57600080fd5b611fe78e828f01611f37565b9a505060408c013567ffffffffffffffff81111561200457600080fd5b6120108e828f01611f37565b99505060608c013567ffffffffffffffff81111561202d57600080fd5b6120398e828f01611f37565b98505060808c013567ffffffffffffffff81111561205657600080fd5b6120628e828f01611f37565b97505060a08c013567ffffffffffffffff81111561207f57600080fd5b61208b8e828f01611f37565b96505060c061209c8e828f01611f61565b95505060e06120ad8e828f01611f61565b9450506101006120bf8e828f01611f61565b9350506101208c013567ffffffffffffffff8111156120dd57600080fd5b6120e98e828f01611f37565b9250506101406120fb8e828f01611f61565b9150509295989b509295989b9093969950565b6000806040838503121561212157600080fd5b600083013567ffffffffffffffff81111561213b57600080fd5b61214785828601611f37565b925050602061215885828601611f61565b9150509250929050565b60006020828403121561217457600080fd5b600061218284828501611f61565b91505092915050565b600061219783836122a2565b905092915050565b6121a88161286b565b82525050565b60006121b98261271e565b6121c38185612741565b9350836020820285016121d5856126f9565b8060005b8581101561221157848403895281516121f2858261218b565b94506121fd83612734565b925060208a019950506001810190506121d9565b50829750879550505050505092915050565b60008154612230816128e9565b61223a8186612752565b94506001821660008114612255576001811461226657612299565b60ff19831686528186019350612299565b61226f85612709565b60005b8381101561229157815481890152600182019150602081019050612272565b838801955050505b50505092915050565b60006122ad82612729565b6122b7818561275d565b93506122c78185602086016128b6565b6122d081612a20565b840191505092915050565b60006122e682612729565b6122f0818561276e565b93506123008185602086016128b6565b61230981612a20565b840191505092915050565b600061231f82612729565b612329818561277f565b93506123398185602086016128b6565b80840191505092915050565b6000612352601b8361276e565b91507f546865204576656e742048617320416c726561647920456e64656400000000006000830152602082019050919050565b6000612392602c8361276e565b91507f4f6e6c7920436f6f7264696e61746f72204861732041636365737320546f205460008301527f6869732046756e6374696f6e00000000000000000000000000000000000000006020830152604082019050919050565b60006123f860288361276e565b91507f4f6e6c79204c656164657273204861732041636365737320546f20546869732060008301527f46756e6374696f6e0000000000000000000000000000000000000000000000006020830152604082019050919050565b600061245e60058361276e565b91507f4572726f720000000000000000000000000000000000000000000000000000006000830152602082019050919050565b61249a8161289d565b82525050565b60006124ac8284612223565b915081905092915050565b60006124c38284612314565b915081905092915050565b600060208201905081810360008301526124e881846121ae565b905092915050565b6000602082019050818103600083015261250a81846122db565b905092915050565b600061018082019050818103600083015261252d818f6122db565b90508181036020830152612541818e6122db565b90508181036040830152612555818d6122db565b90508181036060830152612569818c6122db565b9050818103608083015261257d818b6122db565b905081810360a0830152612591818a6122db565b90506125a060c0830189612491565b6125ad60e0830188612491565b6125bb610100830187612491565b8181036101208301526125ce81866122db565b90506125de610140830185612491565b6125ec61016083018461219f565b9d9c50505050505050505050505050565b6000602082019050818103600083015261261681612345565b9050919050565b6000602082019050818103600083015261263681612385565b9050919050565b60006020820190508181036000830152612656816123eb565b9050919050565b6000602082019050818103600083015261267681612451565b9050919050565b60006020820190506126926000830184612491565b92915050565b6000604051905081810181811067ffffffffffffffff821117156126bf576126be6129f1565b5b8060405250919050565b600067ffffffffffffffff8211156126e4576126e36129f1565b5b601f19601f8301169050602081019050919050565b6000819050602082019050919050565b60008190508160005260206000209050919050565b600081519050919050565b600081519050919050565b6000602082019050919050565b600082825260208201905092915050565b600081905092915050565b600082825260208201905092915050565b600082825260208201905092915050565b600081905092915050565b60006127958261289d565b91506127a08361289d565b9250827fffffffffffffffffffffffffffffffffffffffffffffffffffffffffffffffff038211156127d5576127d4612964565b5b828201905092915050565b60006127eb8261289d565b91506127f68361289d565b92508261280657612805612993565b5b828204905092915050565b600061281c8261289d565b91506128278361289d565b9250817fffffffffffffffffffffffffffffffffffffffffffffffffffffffffffffffff04831182151516156128605761285f612964565b5b828202905092915050565b60006128768261287d565b9050919050565b600073ffffffffffffffffffffffffffffffffffffffff82169050919050565b6000819050919050565b82818337600083830152505050565b60005b838110156128d45780820151818401526020810190506128b9565b838111156128e3576000848401525b50505050565b6000600282049050600182168061290157607f821691505b60208210811415612915576129146129c2565b5b50919050565b60006129268261289d565b91507fffffffffffffffffffffffffffffffffffffffffffffffffffffffffffffffff82141561295957612958612964565b5b600182019050919050565b7f4e487b7100000000000000000000000000000000000000000000000000000000600052601160045260246000fd5b7f4e487b7100000000000000000000000000000000000000000000000000000000600052601260045260246000fd5b7f4e487b7100000000000000000000000000000000000000000000000000000000600052602260045260246000fd5b7f4e487b7100000000000000000000000000000000000000000000000000000000600052604160045260246000fd5b6000601f19601f8301169050919050565b612a3a8161289d565b8114612a4557600080fd5b5056fea26469706673582212209b78aa0274b9a75542a64efbedba05bbbd036dc63fa103aeb9d23e70ee3e243764736f6c63430008000033",
  "immutableReferences": {},
  "source": "// SPDX-License-Identifier: MIT\npragma solidity ^0.8.0;\n\ncontract DecentraAid{\n\n    struct volunteers{\n        string name;\n        address userAddress;\n    }\n\n    struct eventDetails{\n        string eventName;\n        string organization;\n        string location;\n        string date;\n        string startTime;\n        string endTime;\n        uint totalEventHours;\n        uint numberOfVolunteersRequired;\n        uint numberOfLeadersRequired;\n        string eventDescription;\n        uint id;\n        address leaderAddress;\n    }\n\n    struct eventNames{\n        string[] volunteerNames;\n        string[] leaderNames;\n    }\n\n    struct numberOfSignedUp{\n        uint totalVolunteersSignedUpForEvent;\n        uint totalLeadersSignedUpForEvent;\n    }\n\n    mapping (uint => numberOfSignedUp) private numberOfSigned;\n\n    mapping (uint => eventNames) private namesOfVolunteers;\n\n    mapping (uint => eventDetails) public events;\n    \n    uint private numberOfEvents;\n\n    address private eventCoordinator;\n\n    mapping(address => uint) private volunteersHours;\n    mapping(address => uint) private attendanceRate;\n    mapping(uint => uint) private currentNumberOfVolunteers;\n    mapping(uint => uint) private currentNumberOfLeaders;\n    mapping(uint => uint) private signedUp;\n    mapping(string => address) private userAddress;\n    mapping (address => uint) private totalEventsSignedUpFor;\n    mapping (address => uint) private totalEventsAttended;\n    mapping (uint => string) private statusOfEvent;\n\n    constructor(){\n       eventCoordinator = msg.sender;\n    }\n\n    function getHours() public view returns (uint){\n        return(volunteersHours[msg.sender]);\n    }\n\n    function getAttendanceRate() public view returns (uint){\n\n        uint totalSignUp = totalEventsSignedUpFor[msg.sender];\n\n        if (totalSignUp == 0){\n            return 0;\n        }else{\n            uint totalShow = totalEventsAttended[msg.sender];\n            uint rate = ((totalShow * 100) / totalSignUp);\n            return rate;\n        }\n    }\n\n    function signUp(string memory userName, uint id) public{\n        require(keccak256(bytes(statusOfEvent[id])) == keccak256(bytes(\"Started\")), \"The Event Has Already Ended\");\n        require(keccak256(bytes(statusOfEvent[id])) != keccak256(bytes(\"Ended\")), \"The Event Has Already Ended\");\n\n        require(signedUp[id] < events[id].numberOfVolunteersRequired + 1, \"Error\");\n\n        totalEventsSignedUpFor[msg.sender]++;\n        userAddress[userName] = msg.sender;\n        namesOfVolunteers[id].volunteerNames.push(userName);\n        numberOfSigned[id].totalVolunteersSignedUpForEvent++;\n          \n    }\n\n    function signUpAsLeader(string memory userName, uint id) public{\n        require(keccak256(bytes(statusOfEvent[id])) == keccak256(bytes(\"Started\")), \"The Event Has Already Ended\");\n        require(keccak256(bytes(statusOfEvent[id])) != keccak256(bytes(\"Ended\")), \"The Event Has Already Ended\");\n\n        require(signedUp[id] < events[id].numberOfLeadersRequired + 1, \"Error\");\n\n        totalEventsSignedUpFor[msg.sender]++;\n        userAddress[userName] = msg.sender;\n        events[id].leaderAddress = msg.sender;\n        namesOfVolunteers[id].leaderNames.push(userName);\n        numberOfSigned[id].totalLeadersSignedUpForEvent++;\n    }\n\n    function getNumberOfVolunteers(uint eventId) public view returns (uint){\n        return numberOfSigned[eventId].totalVolunteersSignedUpForEvent;\n    }\n\n    function getNumberOfLeaders(uint eventId) public view returns (uint){\n        return numberOfSigned[eventId].totalLeadersSignedUpForEvent;\n    }\n\n    function getNamesOfVolunteers(uint eventId) public view returns (string[] memory){\n\n        return namesOfVolunteers[eventId].volunteerNames;   \n    }\n\n    function getNamesOfLeader(uint eventId) public view returns (string[] memory){\n        return namesOfVolunteers[eventId].leaderNames;   \n    }\n\n    function show(string memory name, uint id) public{\n        require(events[id].leaderAddress == msg.sender, \"Only Leaders Has Access To This Function\");\n        uint totalHours = events[id].totalEventHours;\n        address userAddr = userAddress[name];\n        volunteersHours[userAddr] += totalHours;\n        totalEventsAttended[userAddr]++;\n    }\n\n    function startEvent(uint id) public{\n        require(msg.sender == eventCoordinator, \"Only Coordinator Has Access To This Function\");\n        statusOfEvent[id] = \"Started\";\n    }\n\n    function endEvent(uint id) public{\n       require(msg.sender == eventCoordinator, \"Only Coordinator Has Access To This Function\");\n       statusOfEvent[id] = \"Ended\";\n    }\n\n    function createEvent(string memory eventName, string memory orgName, string memory location,\n    string memory date, string memory startTime, string memory endTime, uint totalEventHours, uint numberOfVolunters, \n    uint numberOfLeaders, string memory eventDescription, uint id) public{\n        require(msg.sender == eventCoordinator, \"Only Coordinator Has Access To This Function\");\n        address leaderAddress = msg.sender;\n        events[id] = eventDetails(eventName, orgName, location, date, \n        startTime, endTime, totalEventHours, numberOfVolunters, numberOfLeaders,\n        eventDescription, id,leaderAddress);\n        events[id].id = id;\n        numberOfEvents++;\n        statusOfEvent[id] = \"Not Started\";\n\n    }\n    function getEventName(uint id) public view returns (string memory) {\n        return (events[id].eventName);\n    }\n\n    function getOrganizationName(uint id) public view returns (string memory){\n         return events[id].organization;\n    }\n\n    function getLocation(uint id) public view returns (string memory){\n        return  (events[id].location);\n    }\n    function getEventDate(uint id) public view returns (string memory){\n          return events[id].date;\n    }\n    function getEventStartTime(uint id) public view returns (string memory) {\n        return (events[id].startTime);\n    }\n    function getEventEndTime(uint id) public view returns (string memory){\n          return events[id].endTime;\n    }\n    function getNumberOfVolunteersRequired(uint id) public view returns (uint){\n           return events[id].numberOfVolunteersRequired;\n    }\n    function getNumberOfLeadersRequired(uint id) public view returns (uint){\n        return  events[id].numberOfLeadersRequired;\n    }\n    function getEventDescription(uint id) public view returns (string memory){\n          return events[id].eventDescription;\n    }\n    function getNumberOfEvents() public view returns(uint){\n        return numberOfEvents;\n    }\n    function getEventId(uint id) public view returns (uint){\n          return events[id].id;\n    }\n}\n",
  "sourcePath": "/home/ubuntu/decentra_aid/contracts/DecentraAid.sol",
  "compiler": {
    "name": "solc",
    "version": "0.8.0+commit.c7dfd78e.Emscripten.clang"
  },
  "schemaVersion": "3.4.16",
  "updatedAt": "2025-04-28T22:22:14.120Z",
  "networkType": "ethereum",
  "devdoc": {
    "kind": "dev",
    "methods": {},
    "version": 1
  },
  "userdoc": {
    "kind": "user",
    "methods": {},
    "version": 1
  }
}