{
  "contractName": "DecentraAid",
  "abi": [
    {
      "inputs": [],
      "stateMutability": "nonpayable",
      "type": "constructor"
    },
    {
      "inputs": [
        {
          "internalType": "uint256",
          "name": "",
          "type": "uint256"
        }
      ],
      "name": "events",
      "outputs": [
        {
          "internalType": "string",
          "name": "eventName",
          "type": "string"
        },
        {
          "internalType": "string",
          "name": "organization",
          "type": "string"
        },
        {
          "internalType": "string",
          "name": "location",
          "type": "string"
        },
        {
          "internalType": "string",
          "name": "date",
          "type": "string"
        },
        {
          "internalType": "string",
          "name": "startTime",
          "type": "string"
        },
        {
          "internalType": "string",
          "name": "endTime",
          "type": "string"
        },
        {
          "internalType": "uint256",
          "name": "totalEventHours",
          "type": "uint256"
        },
        {
          "internalType": "uint256",
          "name": "numberOfVolunteersRequired",
          "type": "uint256"
        },
        {
          "internalType": "uint256",
          "name": "numberOfLeadersRequired",
          "type": "uint256"
        },
        {
          "internalType": "string",
          "name": "eventDescription",
          "type": "string"
        },
        {
          "internalType": "uint256",
          "name": "id",
          "type": "uint256"
        }
      ],
      "stateMutability": "view",
      "type": "function",
      "constant": true
    },
    {
      "inputs": [],
      "name": "getHours",
      "outputs": [
        {
          "internalType": "uint256",
          "name": "",
          "type": "uint256"
        }
      ],
      "stateMutability": "view",
      "type": "function",
      "constant": true
    },
    {
      "inputs": [],
      "name": "getAttendanceRate",
      "outputs": [
        {
          "internalType": "uint256",
          "name": "",
          "type": "uint256"
        }
      ],
      "stateMutability": "view",
      "type": "function",
      "constant": true
    },
    {
      "inputs": [
        {
          "internalType": "string",
          "name": "userName",
          "type": "string"
        },
        {
          "internalType": "uint256",
          "name": "id",
          "type": "uint256"
        }
      ],
      "name": "signUp",
      "outputs": [],
      "stateMutability": "nonpayable",
      "type": "function"
    },
    {
      "inputs": [
        {
          "internalType": "string",
          "name": "userName",
          "type": "string"
        },
        {
          "internalType": "uint256",
          "name": "id",
          "type": "uint256"
        }
      ],
      "name": "signUpAsLeader",
      "outputs": [],
      "stateMutability": "nonpayable",
      "type": "function"
    },
    {
      "inputs": [
        {
          "internalType": "uint256",
          "name": "eventId",
          "type": "uint256"
        }
      ],
      "name": "getNumberOfVolunteers",
      "outputs": [
        {
          "internalType": "uint256",
          "name": "",
          "type": "uint256"
        }
      ],
      "stateMutability": "view",
      "type": "function",
      "constant": true
    },
    {
      "inputs": [
        {
          "internalType": "uint256",
          "name": "eventId",
          "type": "uint256"
        }
      ],
      "name": "getNumberOfLeaders",
      "outputs": [
        {
          "internalType": "uint256",
          "name": "",
          "type": "uint256"
        }
      ],
      "stateMutability": "view",
      "type": "function",
      "constant": true
    },
    {
      "inputs": [
        {
          "internalType": "uint256",
          "name": "eventId",
          "type": "uint256"
        }
      ],
      "name": "getNamesOfVolunteers",
      "outputs": [
        {
          "internalType": "string[]",
          "name": "",
          "type": "string[]"
        }
      ],
      "stateMutability": "view",
      "type": "function",
      "constant": true
    },
    {
      "inputs": [
        {
          "internalType": "uint256",
          "name": "eventId",
          "type": "uint256"
        }
      ],
      "name": "getNamesOfLeader",
      "outputs": [
        {
          "internalType": "string[]",
          "name": "",
          "type": "string[]"
        }
      ],
      "stateMutability": "view",
      "type": "function",
      "constant": true
    },
    {
      "inputs": [
        {
          "internalType": "string",
          "name": "name",
          "type": "string"
        },
        {
          "internalType": "uint256",
          "name": "id",
          "type": "uint256"
        }
      ],
      "name": "show",
      "outputs": [],
      "stateMutability": "nonpayable",
      "type": "function"
    },
    {
      "inputs": [
        {
          "internalType": "uint256",
          "name": "id",
          "type": "uint256"
        }
      ],
      "name": "startEvent",
      "outputs": [],
      "stateMutability": "nonpayable",
      "type": "function"
    },
    {
      "inputs": [
        {
          "internalType": "uint256",
          "name": "id",
          "type": "uint256"
        }
      ],
      "name": "endEvent",
      "outputs": [],
      "stateMutability": "nonpayable",
      "type": "function"
    },
    {
      "inputs": [
        {
          "internalType": "string",
          "name": "eventName",
          "type": "string"
        },
        {
          "internalType": "string",
          "name": "orgName",
          "type": "string"
        },
        {
          "internalType": "string",
          "name": "location",
          "type": "string"
        },
        {
          "internalType": "string",
          "name": "date",
          "type": "string"
        },
        {
          "internalType": "string",
          "name": "startTime",
          "type": "string"
        },
        {
          "internalType": "string",
          "name": "endTime",
          "type": "string"
        },
        {
          "internalType": "uint256",
          "name": "totalEventHours",
          "type": "uint256"
        },
        {
          "internalType": "uint256",
          "name": "numberOfVolunters",
          "type": "uint256"
        },
        {
          "internalType": "uint256",
          "name": "numberOfLeaders",
          "type": "uint256"
        },
        {
          "internalType": "string",
          "name": "eventDescription",
          "type": "string"
        },
        {
          "internalType": "uint256",
          "name": "id",
          "type": "uint256"
        }
      ],
      "name": "createEvent",
      "outputs": [],
      "stateMutability": "nonpayable",
      "type": "function"
    },
    {
      "inputs": [
        {
          "internalType": "uint256",
          "name": "id",
          "type": "uint256"
        }
      ],
      "name": "getEventName",
      "outputs": [
        {
          "internalType": "string",
          "name": "",
          "type": "string"
        }
      ],
      "stateMutability": "view",
      "type": "function",
      "constant": true
    },
    {
      "inputs": [
        {
          "internalType": "uint256",
          "name": "id",
          "type": "uint256"
        }
      ],
      "name": "getOrganizationName",
      "outputs": [
        {
          "internalType": "string",
          "name": "",
          "type": "string"
        }
      ],
      "stateMutability": "view",
      "type": "function",
      "constant": true
    },
    {
      "inputs": [
        {
          "internalType": "uint256",
          "name": "id",
          "type": "uint256"
        }
      ],
      "name": "getLocation",
      "outputs": [
        {
          "internalType": "string",
          "name": "",
          "type": "string"
        }
      ],
      "stateMutability": "view",
      "type": "function",
      "constant": true
    },
    {
      "inputs": [
        {
          "internalType": "uint256",
          "name": "id",
          "type": "uint256"
        }
      ],
      "name": "getEventDate",
      "outputs": [
        {
          "internalType": "string",
          "name": "",
          "type": "string"
        }
      ],
      "stateMutability": "view",
      "type": "function",
      "constant": true
    },
    {
      "inputs": [
        {
          "internalType": "uint256",
          "name": "id",
          "type": "uint256"
        }
      ],
      "name": "getEventStartTime",
      "outputs": [
        {
          "internalType": "string",
          "name": "",
          "type": "string"
        }
      ],
      "stateMutability": "view",
      "type": "function",
      "constant": true
    },
    {
      "inputs": [
        {
          "internalType": "uint256",
          "name": "id",
          "type": "uint256"
        }
      ],
      "name": "getEventEndTime",
      "outputs": [
        {
          "internalType": "string",
          "name": "",
          "type": "string"
        }
      ],
      "stateMutability": "view",
      "type": "function",
      "constant": true
    },
    {
      "inputs": [
        {
          "internalType": "uint256",
          "name": "id",
          "type": "uint256"
        }
      ],
      "name": "getNumberOfVolunteersRequired",
      "outputs": [
        {
          "internalType": "uint256",
          "name": "",
          "type": "uint256"
        }
      ],
      "stateMutability": "view",
      "type": "function",
      "constant": true
    },
    {
      "inputs": [
        {
          "internalType": "uint256",
          "name": "id",
          "type": "uint256"
        }
      ],
      "name": "getNumberOfLeadersRequired",
      "outputs": [
        {
          "internalType": "uint256",
          "name": "",
          "type": "uint256"
        }
      ],
      "stateMutability": "view",
      "type": "function",
      "constant": true
    },
    {
      "inputs": [
        {
          "internalType": "uint256",
          "name": "id",
          "type": "uint256"
        }
      ],
      "name": "getEventDescription",
      "outputs": [
        {
          "internalType": "string",
          "name": "",
          "type": "string"
        }
      ],
      "stateMutability": "view",
      "type": "function",
      "constant": true
    },
    {
      "inputs": [],
      "name": "getNumberOfEvents",
      "outputs": [
        {
          "internalType": "uint256",
          "name": "",
          "type": "uint256"
        }
      ],
      "stateMutability": "view",
      "type": "function",
      "constant": true
    },
    {
      "inputs": [
        {
          "internalType": "uint256",
          "name": "id",
          "type": "uint256"
        }
      ],
      "name": "getEventId",
      "outputs": [
        {
          "internalType": "uint256",
          "name": "",
          "type": "uint256"
        }
      ],
      "stateMutability": "view",
      "type": "function",
      "constant": true
    }
  ],
  "bytecode": "0x608060405234801561001057600080fd5b5033600460006101000a81548173ffffffffffffffffffffffffffffffffffffffff021916908373ffffffffffffffffffffffffffffffffffffffff1602179055506128ae806100616000396000f3fe608060405234801561001057600080fd5b50600436106101585760003560e01c80637a6b7af1116100c3578063c3be559b1161007c578063c3be559b1461042b578063d0887ff31461045b578063d4269b9b1461048b578063d5c5b83c146104bb578063ea3a846b146104eb578063f6c507551461051b57610158565b80637a6b7af1146103475780637f7b139314610377578063903778ea146103a75780639c42ce92146103c3578063a59a6953146103df578063b683549a146103fb57610158565b8063330a347b11610115578063330a347b1461024f5780634945fcc71461026b578063545f10431461029b5780635b4c4b20146102cb57806369075afe146102fb5780637462c1ad1461031757610158565b806309ac3bb51461015d5780630b7914301461017b5780630e0a6f0c146101b55780631c304840146101d3578063291a821d146101ef5780632a4ecbd31461021f575b600080fd5b610165610539565b60405161017291906124df565b60405180910390f35b61019560048036038101906101909190612068565b610543565b6040516101ac9b9a999897969594939291906123a3565b60405180910390f35b6101bd610955565b6040516101ca91906124df565b60405180910390f35b6101ed60048036038101906101e89190612014565b61099c565b005b61020960048036038101906102049190612068565b610b3b565b6040516102169190612381565b60405180910390f35b61023960048036038101906102349190612068565b610be3565b6040516102469190612381565b60405180910390f35b61026960048036038101906102649190612068565b610c8b565b005b61028560048036038101906102809190612068565b610d7b565b6040516102929190612381565b60405180910390f35b6102b560048036038101906102b09190612068565b610e23565b6040516102c29190612381565b60405180910390f35b6102e560048036038101906102e09190612068565b610ecb565b6040516102f29190612381565b60405180910390f35b61031560048036038101906103109190612014565b610f73565b005b610331600480360381019061032c9190612068565b611266565b60405161033e91906124df565b60405180910390f35b610361600480360381019061035c9190612068565b611285565b60405161036e91906124df565b60405180910390f35b610391600480360381019061038c9190612068565b6112a5565b60405161039e9190612381565b60405180910390f35b6103c160048036038101906103bc9190612014565b61134d565b005b6103dd60048036038101906103d89190611e7c565b611640565b005b6103f960048036038101906103f49190612068565b6118c5565b005b61041560048036038101906104109190612068565b6119b5565b60405161042291906124df565b60405180910390f35b61044560048036038101906104409190612068565b6119d4565b60405161045291906124df565b60405180910390f35b61047560048036038101906104709190612068565b6119f4565b604051610482919061235f565b60405180910390f35b6104a560048036038101906104a09190612068565b611ae3565b6040516104b2919061235f565b60405180910390f35b6104d560048036038101906104d09190612068565b611bd2565b6040516104e29190612381565b60405180910390f35b61050560048036038101906105009190612068565b611c7a565b60405161051291906124df565b60405180910390f35b610523611c9a565b60405161053091906124df565b60405180910390f35b6000600354905090565b600260205280600052604060002060009150905080600001805461056690612719565b80601f016020809104026020016040519081016040528092919081815260200182805461059290612719565b80156105df5780601f106105b4576101008083540402835291602001916105df565b820191906000526020600020905b8154815290600101906020018083116105c257829003601f168201915b5050505050908060010180546105f490612719565b80601f016020809104026020016040519081016040528092919081815260200182805461062090612719565b801561066d5780601f106106425761010080835404028352916020019161066d565b820191906000526020600020905b81548152906001019060200180831161065057829003601f168201915b50505050509080600201805461068290612719565b80601f01602080910402602001604051908101604052809291908181526020018280546106ae90612719565b80156106fb5780601f106106d0576101008083540402835291602001916106fb565b820191906000526020600020905b8154815290600101906020018083116106de57829003601f168201915b50505050509080600301805461071090612719565b80601f016020809104026020016040519081016040528092919081815260200182805461073c90612719565b80156107895780601f1061075e57610100808354040283529160200191610789565b820191906000526020600020905b81548152906001019060200180831161076c57829003601f168201915b50505050509080600401805461079e90612719565b80601f01602080910402602001604051908101604052809291908181526020018280546107ca90612719565b80156108175780601f106107ec57610100808354040283529160200191610817565b820191906000526020600020905b8154815290600101906020018083116107fa57829003601f168201915b50505050509080600501805461082c90612719565b80601f016020809104026020016040519081016040528092919081815260200182805461085890612719565b80156108a55780601f1061087a576101008083540402835291602001916108a5565b820191906000526020600020905b81548152906001019060200180831161088857829003601f168201915b5050505050908060060154908060070154908060080154908060090180546108cc90612719565b80601f01602080910402602001604051908101604052809291908181526020018280546108f890612719565b80156109455780601f1061091a57610100808354040283529160200191610945565b820191906000526020600020905b81548152906001019060200180831161092857829003601f168201915b50505050509080600a015490508b565b6000600560003373ffffffffffffffffffffffffffffffffffffffff1673ffffffffffffffffffffffffffffffffffffffff16815260200190815260200160002054905090565b600460009054906101000a900473ffffffffffffffffffffffffffffffffffffffff1673ffffffffffffffffffffffffffffffffffffffff163373ffffffffffffffffffffffffffffffffffffffff1614610a2c576040517f08c379a0000000000000000000000000000000000000000000000000000000008152600401610a239061249f565b60405180910390fd5b6000600260008381526020019081526020016000206006015490506000600a84604051610a599190612348565b908152602001604051809103902060009054906101000a900473ffffffffffffffffffffffffffffffffffffffff16905081600560008373ffffffffffffffffffffffffffffffffffffffff1673ffffffffffffffffffffffffffffffffffffffff1681526020019081526020016000206000828254610ad991906125ec565b92505081905550600c60008273ffffffffffffffffffffffffffffffffffffffff1673ffffffffffffffffffffffffffffffffffffffff1681526020019081526020016000206000815480929190610b309061274b565b919050555050505050565b6060600260008381526020019081526020016000206004018054610b5e90612719565b80601f0160208091040260200160405190810160405280929190818152602001828054610b8a90612719565b8015610bd75780601f10610bac57610100808354040283529160200191610bd7565b820191906000526020600020905b815481529060010190602001808311610bba57829003601f168201915b50505050509050919050565b6060600260008381526020019081526020016000206003018054610c0690612719565b80601f0160208091040260200160405190810160405280929190818152602001828054610c3290612719565b8015610c7f5780601f10610c5457610100808354040283529160200191610c7f565b820191906000526020600020905b815481529060010190602001808311610c6257829003601f168201915b50505050509050919050565b600460009054906101000a900473ffffffffffffffffffffffffffffffffffffffff1673ffffffffffffffffffffffffffffffffffffffff163373ffffffffffffffffffffffffffffffffffffffff1614610d1b576040517f08c379a0000000000000000000000000000000000000000000000000000000008152600401610d129061249f565b60405180910390fd5b6040518060400160405280600581526020017f456e646564000000000000000000000000000000000000000000000000000000815250600d60008381526020019081526020016000209080519060200190610d77929190611d5c565b5050565b6060600260008381526020019081526020016000206000018054610d9e90612719565b80601f0160208091040260200160405190810160405280929190818152602001828054610dca90612719565b8015610e175780601f10610dec57610100808354040283529160200191610e17565b820191906000526020600020905b815481529060010190602001808311610dfa57829003601f168201915b50505050509050919050565b6060600260008381526020019081526020016000206009018054610e4690612719565b80601f0160208091040260200160405190810160405280929190818152602001828054610e7290612719565b8015610ebf5780601f10610e9457610100808354040283529160200191610ebf565b820191906000526020600020905b815481529060010190602001808311610ea257829003601f168201915b50505050509050919050565b6060600260008381526020019081526020016000206001018054610eee90612719565b80601f0160208091040260200160405190810160405280929190818152602001828054610f1a90612719565b8015610f675780601f10610f3c57610100808354040283529160200191610f67565b820191906000526020600020905b815481529060010190602001808311610f4a57829003601f168201915b50505050509050919050565b6040518060400160405280600781526020017f537461727465640000000000000000000000000000000000000000000000000081525080519060200120600d6000838152602001908152602001600020604051610fd09190612331565b604051809103902014611018576040517f08c379a000000000000000000000000000000000000000000000000000000000815260040161100f9061247f565b60405180910390fd5b6040518060400160405280600581526020017f456e64656400000000000000000000000000000000000000000000000000000081525080519060200120600d60008381526020019081526020016000206040516110759190612331565b604051809103902014156110be576040517f08c379a00000000000000000000000000000000000000000000000000000000081526004016110b59061247f565b60405180910390fd5b600160026000838152602001908152602001600020600701546110e191906125ec565b600960008381526020019081526020016000205410611135576040517f08c379a000000000000000000000000000000000000000000000000000000000815260040161112c906124bf565b60405180910390fd5b600b60003373ffffffffffffffffffffffffffffffffffffffff1673ffffffffffffffffffffffffffffffffffffffff16815260200190815260200160002060008154809291906111859061274b565b919050555033600a8360405161119b9190612348565b908152602001604051809103902060006101000a81548173ffffffffffffffffffffffffffffffffffffffff021916908373ffffffffffffffffffffffffffffffffffffffff1602179055506001600082815260200190815260200160002060000182908060018154018082558091505060019003906000526020600020016000909190919091509080519060200190611236929190611d5c565b50600080828152602001908152602001600020600001600081548092919061125d9061274b565b91905055505050565b6000806000838152602001908152602001600020600101549050919050565b600060026000838152602001908152602001600020600701549050919050565b60606002600083815260200190815260200160002060020180546112c890612719565b80601f01602080910402602001604051908101604052809291908181526020018280546112f490612719565b80156113415780601f1061131657610100808354040283529160200191611341565b820191906000526020600020905b81548152906001019060200180831161132457829003601f168201915b50505050509050919050565b6040518060400160405280600781526020017f537461727465640000000000000000000000000000000000000000000000000081525080519060200120600d60008381526020019081526020016000206040516113aa9190612331565b6040518091039020146113f2576040517f08c379a00000000000000000000000000000000000000000000000000000000081526004016113e99061247f565b60405180910390fd5b6040518060400160405280600581526020017f456e64656400000000000000000000000000000000000000000000000000000081525080519060200120600d600083815260200190815260200160002060405161144f9190612331565b60405180910390201415611498576040517f08c379a000000000000000000000000000000000000000000000000000000000815260040161148f9061247f565b60405180910390fd5b600160026000838152602001908152602001600020600801546114bb91906125ec565b60096000838152602001908152602001600020541061150f576040517f08c379a0000000000000000000000000000000000000000000000000000000008152600401611506906124bf565b60405180910390fd5b600b60003373ffffffffffffffffffffffffffffffffffffffff1673ffffffffffffffffffffffffffffffffffffffff168152602001908152602001600020600081548092919061155f9061274b565b919050555033600a836040516115759190612348565b908152602001604051809103902060006101000a81548173ffffffffffffffffffffffffffffffffffffffff021916908373ffffffffffffffffffffffffffffffffffffffff1602179055506001600082815260200190815260200160002060010182908060018154018082558091505060019003906000526020600020016000909190919091509080519060200190611610929190611d5c565b5060008082815260200190815260200160002060010160008154809291906116379061274b565b91905055505050565b600460009054906101000a900473ffffffffffffffffffffffffffffffffffffffff1673ffffffffffffffffffffffffffffffffffffffff163373ffffffffffffffffffffffffffffffffffffffff16146116d0576040517f08c379a00000000000000000000000000000000000000000000000000000000081526004016116c79061249f565b60405180910390fd5b6040518061016001604052808c81526020018b81526020018a81526020018981526020018881526020018781526020018681526020018581526020018481526020018381526020018281525060026000838152602001908152602001600020600082015181600001908051906020019061174b929190611d5c565b506020820151816001019080519060200190611768929190611d5c565b506040820151816002019080519060200190611785929190611d5c565b5060608201518160030190805190602001906117a2929190611d5c565b5060808201518160040190805190602001906117bf929190611d5c565b5060a08201518160050190805190602001906117dc929190611d5c565b5060c0820151816006015560e082015181600701556101008201518160080155610120820151816009019080519060200190611819929190611d5c565b5061014082015181600a01559050508060026000838152602001908152602001600020600a0181905550600360008154809291906118569061274b565b91905055506040518060400160405280600b81526020017f4e6f742053746172746564000000000000000000000000000000000000000000815250600d600083815260200190815260200160002090805190602001906118b7929190611d5c565b505050505050505050505050565b600460009054906101000a900473ffffffffffffffffffffffffffffffffffffffff1673ffffffffffffffffffffffffffffffffffffffff163373ffffffffffffffffffffffffffffffffffffffff1614611955576040517f08c379a000000000000000000000000000000000000000000000000000000000815260040161194c9061249f565b60405180910390fd5b6040518060400160405280600781526020017f5374617274656400000000000000000000000000000000000000000000000000815250600d600083815260200190815260200160002090805190602001906119b1929190611d5c565b5050565b6000806000838152602001908152602001600020600001549050919050565b600060026000838152602001908152602001600020600a01549050919050565b606060016000838152602001908152602001600020600101805480602002602001604051908101604052809291908181526020016000905b82821015611ad8578382906000526020600020018054611a4b90612719565b80601f0160208091040260200160405190810160405280929190818152602001828054611a7790612719565b8015611ac45780601f10611a9957610100808354040283529160200191611ac4565b820191906000526020600020905b815481529060010190602001808311611aa757829003601f168201915b505050505081526020019060010190611a2c565b505050509050919050565b606060016000838152602001908152602001600020600001805480602002602001604051908101604052809291908181526020016000905b82821015611bc7578382906000526020600020018054611b3a90612719565b80601f0160208091040260200160405190810160405280929190818152602001828054611b6690612719565b8015611bb35780601f10611b8857610100808354040283529160200191611bb3565b820191906000526020600020905b815481529060010190602001808311611b9657829003601f168201915b505050505081526020019060010190611b1b565b505050509050919050565b6060600260008381526020019081526020016000206005018054611bf590612719565b80601f0160208091040260200160405190810160405280929190818152602001828054611c2190612719565b8015611c6e5780601f10611c4357610100808354040283529160200191611c6e565b820191906000526020600020905b815481529060010190602001808311611c5157829003601f168201915b50505050509050919050565b600060026000838152602001908152602001600020600801549050919050565b600080600b60003373ffffffffffffffffffffffffffffffffffffffff1673ffffffffffffffffffffffffffffffffffffffff1681526020019081526020016000205490506000811415611cf2576000915050611d59565b6000600c60003373ffffffffffffffffffffffffffffffffffffffff1673ffffffffffffffffffffffffffffffffffffffff168152602001908152602001600020549050600082606483611d469190612673565b611d509190612642565b90508093505050505b90565b828054611d6890612719565b90600052602060002090601f016020900481019282611d8a5760008555611dd1565b82601f10611da357805160ff1916838001178555611dd1565b82800160010185558215611dd1579182015b82811115611dd0578251825591602001919060010190611db5565b5b509050611dde9190611de2565b5090565b5b80821115611dfb576000816000905550600101611de3565b5090565b6000611e12611e0d8461252b565b6124fa565b905082815260208101848484011115611e2a57600080fd5b611e358482856126d7565b509392505050565b600082601f830112611e4e57600080fd5b8135611e5e848260208601611dff565b91505092915050565b600081359050611e7681612861565b92915050565b60008060008060008060008060008060006101608c8e031215611e9e57600080fd5b60008c013567ffffffffffffffff811115611eb857600080fd5b611ec48e828f01611e3d565b9b505060208c013567ffffffffffffffff811115611ee157600080fd5b611eed8e828f01611e3d565b9a505060408c013567ffffffffffffffff811115611f0a57600080fd5b611f168e828f01611e3d565b99505060608c013567ffffffffffffffff811115611f3357600080fd5b611f3f8e828f01611e3d565b98505060808c013567ffffffffffffffff811115611f5c57600080fd5b611f688e828f01611e3d565b97505060a08c013567ffffffffffffffff811115611f8557600080fd5b611f918e828f01611e3d565b96505060c0611fa28e828f01611e67565b95505060e0611fb38e828f01611e67565b945050610100611fc58e828f01611e67565b9350506101208c013567ffffffffffffffff811115611fe357600080fd5b611fef8e828f01611e3d565b9250506101406120018e828f01611e67565b9150509295989b509295989b9093969950565b6000806040838503121561202757600080fd5b600083013567ffffffffffffffff81111561204157600080fd5b61204d85828601611e3d565b925050602061205e85828601611e67565b9150509250929050565b60006020828403121561207a57600080fd5b600061208884828501611e67565b91505092915050565b600061209d8383612199565b905092915050565b60006120b082612580565b6120ba81856125a3565b9350836020820285016120cc8561255b565b8060005b8581101561210857848403895281516120e98582612091565b94506120f483612596565b925060208a019950506001810190506120d0565b50829750879550505050505092915050565b6000815461212781612719565b61213181866125b4565b9450600182166000811461214c576001811461215d57612190565b60ff19831686528186019350612190565b6121668561256b565b60005b8381101561218857815481890152600182019150602081019050612169565b838801955050505b50505092915050565b60006121a48261258b565b6121ae81856125bf565b93506121be8185602086016126e6565b6121c781612850565b840191505092915050565b60006121dd8261258b565b6121e781856125d0565b93506121f78185602086016126e6565b61220081612850565b840191505092915050565b60006122168261258b565b61222081856125e1565b93506122308185602086016126e6565b80840191505092915050565b6000612249601b836125d0565b91507f546865204576656e742048617320416c726561647920456e64656400000000006000830152602082019050919050565b6000612289602c836125d0565b91507f4f6e6c7920436f6f7264696e61746f72204861732041636365737320546f205460008301527f6869732046756e6374696f6e00000000000000000000000000000000000000006020830152604082019050919050565b60006122ef6005836125d0565b91507f4572726f720000000000000000000000000000000000000000000000000000006000830152602082019050919050565b61232b816126cd565b82525050565b600061233d828461211a565b915081905092915050565b6000612354828461220b565b915081905092915050565b6000602082019050818103600083015261237981846120a5565b905092915050565b6000602082019050818103600083015261239b81846121d2565b905092915050565b60006101608201905081810360008301526123be818e6121d2565b905081810360208301526123d2818d6121d2565b905081810360408301526123e6818c6121d2565b905081810360608301526123fa818b6121d2565b9050818103608083015261240e818a6121d2565b905081810360a083015261242281896121d2565b905061243160c0830188612322565b61243e60e0830187612322565b61244c610100830186612322565b81810361012083015261245f81856121d2565b905061246f610140830184612322565b9c9b505050505050505050505050565b600060208201905081810360008301526124988161223c565b9050919050565b600060208201905081810360008301526124b88161227c565b9050919050565b600060208201905081810360008301526124d8816122e2565b9050919050565b60006020820190506124f46000830184612322565b92915050565b6000604051905081810181811067ffffffffffffffff8211171561252157612520612821565b5b8060405250919050565b600067ffffffffffffffff82111561254657612545612821565b5b601f19601f8301169050602081019050919050565b6000819050602082019050919050565b60008190508160005260206000209050919050565b600081519050919050565b600081519050919050565b6000602082019050919050565b600082825260208201905092915050565b600081905092915050565b600082825260208201905092915050565b600082825260208201905092915050565b600081905092915050565b60006125f7826126cd565b9150612602836126cd565b9250827fffffffffffffffffffffffffffffffffffffffffffffffffffffffffffffffff0382111561263757612636612794565b5b828201905092915050565b600061264d826126cd565b9150612658836126cd565b925082612668576126676127c3565b5b828204905092915050565b600061267e826126cd565b9150612689836126cd565b9250817fffffffffffffffffffffffffffffffffffffffffffffffffffffffffffffffff04831182151516156126c2576126c1612794565b5b828202905092915050565b6000819050919050565b82818337600083830152505050565b60005b838110156127045780820151818401526020810190506126e9565b83811115612713576000848401525b50505050565b6000600282049050600182168061273157607f821691505b60208210811415612745576127446127f2565b5b50919050565b6000612756826126cd565b91507fffffffffffffffffffffffffffffffffffffffffffffffffffffffffffffffff82141561278957612788612794565b5b600182019050919050565b7f4e487b7100000000000000000000000000000000000000000000000000000000600052601160045260246000fd5b7f4e487b7100000000000000000000000000000000000000000000000000000000600052601260045260246000fd5b7f4e487b7100000000000000000000000000000000000000000000000000000000600052602260045260246000fd5b7f4e487b7100000000000000000000000000000000000000000000000000000000600052604160045260246000fd5b6000601f19601f8301169050919050565b61286a816126cd565b811461287557600080fd5b5056fea26469706673582212209baa49795328655318da4bf9c80989a873da695824319e3c97be9aa1570f993564736f6c63430008000033",
  "immutableReferences": {},
  "source": "// SPDX-License-Identifier: MIT\npragma solidity ^0.8.0;\n\ncontract DecentraAid{\n\n    struct volunteers{\n        string name;\n        address userAddress;\n    }\n\n    struct eventDetails{\n        string eventName;\n        string organization;\n        string location;\n        string date;\n        string startTime;\n        string endTime;\n        uint totalEventHours;\n        uint numberOfVolunteersRequired;\n        uint numberOfLeadersRequired;\n        string eventDescription;\n        uint id;\n    }\n\n    struct eventNames{\n        string[] volunteerNames;\n        string[] leaderNames;\n    }\n\n    struct numberOfSignedUp{\n        uint totalVolunteersSignedUpForEvent;\n        uint totalLeadersSignedUpForEvent;\n    }\n\n    mapping (uint => numberOfSignedUp) private numberOfSigned;\n\n    mapping (uint => eventNames) private namesOfVolunteers;\n\n    mapping (uint => eventDetails) public events;\n    \n    uint private numberOfEvents;\n\n    address private eventCoordinator;\n\n    mapping(address => uint) private volunteersHours;\n    mapping(address => uint) private attendanceRate;\n    mapping(uint => uint) private currentNumberOfVolunteers;\n    mapping(uint => uint) private currentNumberOfLeaders;\n    mapping(uint => uint) private signedUp;\n    mapping(string => address) private userAddress;\n    mapping (address => uint) private totalEventsSignedUpFor;\n    mapping (address => uint) private totalEventsAttended;\n    mapping (uint => string) private statusOfEvent;\n\n    constructor(){\n       eventCoordinator = msg.sender;\n    }\n\n    function getHours() public view returns (uint){\n        return(volunteersHours[msg.sender]);\n    }\n\n    function getAttendanceRate() public view returns (uint){\n\n        uint totalSignUp = totalEventsSignedUpFor[msg.sender];\n\n        if (totalSignUp == 0){\n            return 0;\n        }else{\n            uint totalShow = totalEventsAttended[msg.sender];\n            uint rate = ((totalShow * 100) / totalSignUp);\n            return rate;\n        }\n    }\n\n    function signUp(string memory userName, uint id) public{\n        require(keccak256(bytes(statusOfEvent[id])) == keccak256(bytes(\"Started\")), \"The Event Has Already Ended\");\n        require(keccak256(bytes(statusOfEvent[id])) != keccak256(bytes(\"Ended\")), \"The Event Has Already Ended\");\n\n        require(signedUp[id] < events[id].numberOfVolunteersRequired + 1, \"Error\");\n\n        totalEventsSignedUpFor[msg.sender]++;\n        userAddress[userName] = msg.sender;\n        namesOfVolunteers[id].volunteerNames.push(userName);\n        numberOfSigned[id].totalVolunteersSignedUpForEvent++;\n          \n    }\n\n    function signUpAsLeader(string memory userName, uint id) public{\n        require(keccak256(bytes(statusOfEvent[id])) == keccak256(bytes(\"Started\")), \"The Event Has Already Ended\");\n        require(keccak256(bytes(statusOfEvent[id])) != keccak256(bytes(\"Ended\")), \"The Event Has Already Ended\");\n\n        require(signedUp[id] < events[id].numberOfLeadersRequired + 1, \"Error\");\n\n        totalEventsSignedUpFor[msg.sender]++;\n        userAddress[userName] = msg.sender;\n        namesOfVolunteers[id].leaderNames.push(userName);\n        numberOfSigned[id].totalLeadersSignedUpForEvent++;\n    }\n\n    function getNumberOfVolunteers(uint eventId) public view returns (uint){\n        return numberOfSigned[eventId].totalVolunteersSignedUpForEvent;\n    }\n\n    function getNumberOfLeaders(uint eventId) public view returns (uint){\n        return numberOfSigned[eventId].totalLeadersSignedUpForEvent;\n    }\n\n    function getNamesOfVolunteers(uint eventId) public view returns (string[] memory){\n\n        return namesOfVolunteers[eventId].volunteerNames;   \n    }\n\n    function getNamesOfLeader(uint eventId) public view returns (string[] memory){\n        return namesOfVolunteers[eventId].leaderNames;   \n    }\n\n    function show(string memory name, uint id) public{\n        require(msg.sender == eventCoordinator, \"Only Coordinator Has Access To This Function\");\n        uint totalHours = events[id].totalEventHours;\n        address userAddr = userAddress[name];\n        volunteersHours[userAddr] += totalHours;\n        totalEventsAttended[userAddr]++;\n    }\n\n    function startEvent(uint id) public{\n        require(msg.sender == eventCoordinator, \"Only Coordinator Has Access To This Function\");\n        statusOfEvent[id] = \"Started\";\n    }\n\n    function endEvent(uint id) public{\n       require(msg.sender == eventCoordinator, \"Only Coordinator Has Access To This Function\");\n       statusOfEvent[id] = \"Ended\";\n    }\n\n    function createEvent(string memory eventName, string memory orgName, string memory location,\n    string memory date, string memory startTime, string memory endTime, uint totalEventHours, uint numberOfVolunters, \n    uint numberOfLeaders, string memory eventDescription, uint id) public{\n        require(msg.sender == eventCoordinator, \"Only Coordinator Has Access To This Function\");\n\n        events[id] = eventDetails(eventName, orgName, location, date, \n        startTime, endTime, totalEventHours, numberOfVolunters, numberOfLeaders,\n        eventDescription, id);\n        events[id].id = id;\n        numberOfEvents++;\n        statusOfEvent[id] = \"Not Started\";\n\n    }\n    function getEventName(uint id) public view returns (string memory) {\n        return (events[id].eventName);\n    }\n\n    function getOrganizationName(uint id) public view returns (string memory){\n         return events[id].organization;\n    }\n\n    function getLocation(uint id) public view returns (string memory){\n        return  (events[id].location);\n    }\n    function getEventDate(uint id) public view returns (string memory){\n          return events[id].date;\n    }\n    function getEventStartTime(uint id) public view returns (string memory) {\n        return (events[id].startTime);\n    }\n    function getEventEndTime(uint id) public view returns (string memory){\n          return events[id].endTime;\n    }\n    function getNumberOfVolunteersRequired(uint id) public view returns (uint){\n           return events[id].numberOfVolunteersRequired;\n    }\n    function getNumberOfLeadersRequired(uint id) public view returns (uint){\n        return  events[id].numberOfLeadersRequired;\n    }\n    function getEventDescription(uint id) public view returns (string memory){\n          return events[id].eventDescription;\n    }\n    function getNumberOfEvents() public view returns(uint){\n        return numberOfEvents;\n    }\n    function getEventId(uint id) public view returns (uint){\n          return events[id].id;\n    }\n}\n",
  "sourcePath": "/home/osboxes/decentra_aid/contracts/DecentraAid.sol",
  "compiler": {
    "name": "solc",
    "version": "0.8.0+commit.c7dfd78e.Emscripten.clang"
  },
  "schemaVersion": "3.4.16",
  "updatedAt": "2025-04-26T17:53:41.657Z",
  "networkType": "ethereum",
  "devdoc": {
    "kind": "dev",
    "methods": {},
    "version": 1
  },
  "userdoc": {
    "kind": "user",
    "methods": {},
    "version": 1
  }
}